{
  "transactions": [
    {
      "hash": "0x9c8feb45851ae817b6e711039da31de261abb2acc1baf82005cf4f190e45ec33",
      "transactionType": "CALL",
      "contractName": null,
      "contractAddress": "0x779877a7b0d9e8603169ddbd7836e478b4624789",
      "function": "transferAndCall(address,uint256,bytes)",
      "arguments": [
        "0x9DdfaCa8183c41ad55329BdeeD9F6A8d53168B1B",
        "3000000000000000000",
        "0x9fbc20d245ef2cf97061843eaedbba3237a9a0292cfd12bcda868a807b04b649"
      ],
      "transaction": {
        "from": "0x80c6f0d107695d3e9010133ecdad420ff0c78529",
        "to": "0x779877a7b0d9e8603169ddbd7836e478b4624789",
        "gas": "0x14cbb",
        "value": "0x0",
        "input": "0x4000aea00000000000000000000000009ddfaca8183c41ad55329bdeed9f6a8d53168b1b00000000000000000000000000000000000000000000000029a2241af62c0000000000000000000000000000000000000000000000000000000000000000006000000000000000000000000000000000000000000000000000000000000000209fbc20d245ef2cf97061843eaedbba3237a9a0292cfd12bcda868a807b04b649",
        "nonce": "0x9",
        "chainId": "0xaa36a7"
      },
      "additionalContracts": [],
      "isFixedGasLimit": false
    }
  ],
  "receipts": [],
  "libraries": [],
  "pending": [],
  "returns": {},
  "timestamp": 1768241394652,
  "chain": 11155111,
  "commit": null
}